{
  "contractName": "DonationCampaignsTime",
  "abi": [
    {
      "constant": true,
      "inputs": [],
      "name": "numCampaigns",
      "outputs": [
        {
          "name": "",
          "type": "uint256"
        }
      ],
      "payable": false,
      "stateMutability": "view",
      "type": "function"
    },
    {
      "constant": true,
      "inputs": [],
      "name": "numSucceededCampaigns",
      "outputs": [
        {
          "name": "",
          "type": "uint256"
        }
      ],
      "payable": false,
      "stateMutability": "view",
      "type": "function"
    },
    {
      "anonymous": false,
      "inputs": [
        {
          "indexed": false,
          "name": "donationCampaignId",
          "type": "uint256"
        },
        {
          "indexed": false,
          "name": "amount",
          "type": "uint256"
        }
      ],
      "name": "DonationCampaignFundingGoalReached",
      "type": "event"
    },
    {
      "anonymous": false,
      "inputs": [
        {
          "indexed": false,
          "name": "donationCampaignId",
          "type": "uint256"
        },
        {
          "indexed": false,
          "name": "amount",
          "type": "uint256"
        }
      ],
      "name": "DonationCampaignGoalsReached",
      "type": "event"
    },
    {
      "anonymous": false,
      "inputs": [
        {
          "indexed": false,
          "name": "donationCampaignId",
          "type": "uint256"
        },
        {
          "indexed": false,
          "name": "amount",
          "type": "uint256"
        }
      ],
      "name": "DonationCampaignTimeExpiredNotFunded",
      "type": "event"
    },
    {
      "anonymous": false,
      "inputs": [
        {
          "indexed": false,
          "name": "donationCampaignId",
          "type": "uint256"
        },
        {
          "indexed": false,
          "name": "amount",
          "type": "uint256"
        }
      ],
      "name": "DonationCampaignSucceeded",
      "type": "event"
    },
    {
      "anonymous": false,
      "inputs": [
        {
          "indexed": false,
          "name": "donationCampaignId",
          "type": "uint256"
        }
      ],
      "name": "DonationCampaignStopped",
      "type": "event"
    },
    {
      "anonymous": false,
      "inputs": [
        {
          "indexed": false,
          "name": "donationCampaignId",
          "type": "uint256"
        },
        {
          "indexed": false,
          "name": "from",
          "type": "address"
        },
        {
          "indexed": false,
          "name": "amount",
          "type": "uint256"
        }
      ],
      "name": "DonationReceived",
      "type": "event"
    },
    {
      "anonymous": false,
      "inputs": [
        {
          "indexed": false,
          "name": "donationCampaignId",
          "type": "uint256"
        },
        {
          "indexed": false,
          "name": "fundingGoal",
          "type": "uint256"
        },
        {
          "indexed": false,
          "name": "timeGoal",
          "type": "uint256"
        }
      ],
      "name": "DonationCampaignCreated",
      "type": "event"
    },
    {
      "constant": false,
      "inputs": [
        {
          "name": "fundingGoal",
          "type": "uint256"
        },
        {
          "name": "timeGoal",
          "type": "uint256"
        }
      ],
      "name": "newCampaign",
      "outputs": [
        {
          "name": "donationCampaignId",
          "type": "uint256"
        }
      ],
      "payable": false,
      "stateMutability": "nonpayable",
      "type": "function"
    },
    {
      "constant": false,
      "inputs": [
        {
          "name": "donationCampaignId",
          "type": "uint256"
        }
      ],
      "name": "donate",
      "outputs": [
        {
          "name": "",
          "type": "bool"
        }
      ],
      "payable": true,
      "stateMutability": "payable",
      "type": "function"
    },
    {
      "constant": false,
      "inputs": [
        {
          "name": "donationCampaignId",
          "type": "uint256"
        }
      ],
      "name": "withdrawFromFailedCampaign",
      "outputs": [
        {
          "name": "",
          "type": "bool"
        }
      ],
      "payable": false,
      "stateMutability": "nonpayable",
      "type": "function"
    },
    {
      "constant": false,
      "inputs": [
        {
          "name": "donationCampaignId",
          "type": "uint256"
        }
      ],
      "name": "withdraw",
      "outputs": [],
      "payable": false,
      "stateMutability": "nonpayable",
      "type": "function"
    },
    {
      "constant": false,
      "inputs": [
        {
          "name": "donationCampaignId",
          "type": "uint256"
        }
      ],
      "name": "stopDonationCampaign",
      "outputs": [
        {
          "name": "",
          "type": "bool"
        }
      ],
      "payable": false,
      "stateMutability": "nonpayable",
      "type": "function"
    },
    {
      "constant": true,
      "inputs": [
        {
          "name": "donationCampaignId",
          "type": "uint256"
        }
      ],
      "name": "getCampaignCollectedAmount",
      "outputs": [
        {
          "name": "",
          "type": "uint256"
        }
      ],
      "payable": false,
      "stateMutability": "view",
      "type": "function"
    },
    {
      "constant": true,
      "inputs": [
        {
          "name": "donationCampaignId",
          "type": "uint256"
        }
      ],
      "name": "getCampaignGoals",
      "outputs": [
        {
          "name": "",
          "type": "uint256"
        },
        {
          "name": "",
          "type": "uint256"
        }
      ],
      "payable": false,
      "stateMutability": "view",
      "type": "function"
    },
    {
      "constant": false,
      "inputs": [
        {
          "name": "donationCampaignId",
          "type": "uint256"
        }
      ],
      "name": "checkCampaignStatus",
      "outputs": [
        {
          "name": "",
          "type": "uint8"
        }
      ],
      "payable": false,
      "stateMutability": "nonpayable",
      "type": "function"
    }
  ],
  "bytecode": "0x608060405234801561001057600080fd5b50611710806100206000396000f3006080604052600436106100a4576000357c0100000000000000000000000000000000000000000000000000000000900463ffffffff1680632c0f7b6f146100a95780632e1a7d4d146100d45780633bf395a71461010157806370041d10146101465780637c0f3423146101955780638c8a875e146101dd578063a9ba4a8d14610228578063bcddb68814610269578063c80c854c14610294578063f14faf6f146102d9575b600080fd5b3480156100b557600080fd5b506100be610311565b6040518082815260200191505060405180910390f35b3480156100e057600080fd5b506100ff60048036038101908080359060200190929190505050610317565b005b34801561010d57600080fd5b5061012c60048036038101908080359060200190929190505050610704565b604051808215151515815260200191505060405180910390f35b34801561015257600080fd5b50610171600480360381019080803590602001909291905050506109e5565b6040518082600581111561018157fe5b60ff16815260200191505060405180910390f35b3480156101a157600080fd5b506101c060048036038101908080359060200190929190505050610bc5565b604051808381526020018281526020019250505060405180910390f35b3480156101e957600080fd5b506102126004803603810190808035906020019092919080359060200190929190505050610bf3565b6040518082815260200191505060405180910390f35b34801561023457600080fd5b5061025360048036038101908080359060200190929190505050610e43565b6040518082815260200191505060405180910390f35b34801561027557600080fd5b5061027e610e68565b6040518082815260200191505060405180910390f35b3480156102a057600080fd5b506102bf60048036038101908080359060200190929190505050610e6e565b604051808215151515815260200191505060405180910390f35b6102f760048036038101908080359060200190929190505050611130565b604051808215151515815260200191505060405180910390f35b60005481565b6000806002600084815260200190815260200160002091503373ffffffffffffffffffffffffffffffffffffffff168260000160009054906101000a900473ffffffffffffffffffffffffffffffffffffffff1673ffffffffffffffffffffffffffffffffffffffff16141515610442576040517f08c379a000000000000000000000000000000000000000000000000000000000815260040180806020018281038252604b8152602001807f54686520646f6e6174696f6e2063616d706169676e206f776e65722063616e2081526020017f6f6e6c792077697468647261772074686520636f6c6c65637465642063616d7081526020017f6169676e2066756e64732e00000000000000000000000000000000000000000081525060600191505060405180910390fd5b6001600581111561044f57fe5b8260050160009054906101000a900460ff16600581111561046c57fe5b148061049f57506002600581111561048057fe5b8260050160009054906101000a900460ff16600581111561049d57fe5b145b1515610539576040517f08c379a000000000000000000000000000000000000000000000000000000000815260040180806020018281038252603c8152602001807f43616e6e6f742077697468647261772c2074686520676f616c73206e6f74207281526020017f6561636865642028636f6e646974696f6e73206e6f74206d6574292e0000000081525060400191505060405180910390fd5b6001600581111561054657fe5b8260050160009054906101000a900460ff16600581111561056357fe5b141561063057816002015442101561062f576040517f08c379a00000000000000000000000000000000000000000000000000000000081526004018080602001828103825260458152602001807f43616e6e6f742077697468647261772c207468652063616d706169676e20697381526020017f207374696c6c20616374697665202d2074696d65206e6f74206578706972656481526020017f207965742e00000000000000000000000000000000000000000000000000000081525060600191505060405180910390fd5b5b60058260050160006101000a81548160ff0219169083600581111561065157fe5b021790555081600301549050600082600301819055506001600081548092919060010191905055507f0b56997bb3b7ef6a66249d9c4314dba087e358e970fbf2381ac436e79857594f8382604051808381526020018281526020019250505060405180910390a13373ffffffffffffffffffffffffffffffffffffffff166108fc829081150290604051600060405180830381858888f193505050501580156106fe573d6000803e3d6000fd5b50505050565b6000806002600084815260200190815260200160002090506000600581111561072957fe5b8160050160009054906101000a900460ff16600581111561074657fe5b148061077957506001600581111561075a57fe5b8160050160009054906101000a900460ff16600581111561077757fe5b145b806107ab57506002600581111561078c57fe5b8160050160009054906101000a900460ff1660058111156107a957fe5b145b1515610891576040517f08c379a00000000000000000000000000000000000000000000000000000000081526004018080602001828103825260698152602001807f5468652063616d706169676e2063616e6e6f742062652073746f70706564206181526020017f7420746869732073746167652c206974206861732066696e697368656420737581526020017f636365737366756c6c792c20697320616c72656164792073746f70706564206f81526020017f72206661696c65642e000000000000000000000000000000000000000000000081525060800191505060405180910390fd5b3373ffffffffffffffffffffffffffffffffffffffff168160000160009054906101000a900473ffffffffffffffffffffffffffffffffffffffff1673ffffffffffffffffffffffffffffffffffffffff1614151561097e576040517f08c379a000000000000000000000000000000000000000000000000000000000815260040180806020018281038252603a8152602001807f54686520646f6e6174696f6e2063616d706169676e206f776e65722063616e2081526020017f6f6e6c792073746f7020746865207472616e73616374696f6e2e00000000000081525060400191505060405180910390fd5b60048160050160006101000a81548160ff0219169083600581111561099f57fe5b02179055507f77d4718e51758fb83bb17a3e3355d0374bf766d669f752389895a1980b58013c836040518082815260200191505060405180910390a16001915050919050565b60008060026000848152602001908152602001600020905060008160010154111515610a9f576040517f08c379a00000000000000000000000000000000000000000000000000000000081526004018080602001828103825260258152602001807f54686520646f6e6174696f6e2063616d706169676e20646f6573206e6f74206581526020017f786973747300000000000000000000000000000000000000000000000000000081525060400191505060405180910390fd5b60006005811115610aac57fe5b8160050160009054906101000a900460ff166005811115610ac957fe5b1415610b2e57428160020154118015610ae9575080600101548160030154105b15610b155760038160050160006101000a81548160ff02191690836005811115610b0f57fe5b02179055505b8060050160009054906101000a900460ff169150610bbf565b60016005811115610b3b57fe5b8160050160009054906101000a900460ff166005811115610b5857fe5b1415610baa574281600201541115610b915760028160050160006101000a81548160ff02191690836005811115610b8b57fe5b02179055505b8060050160009054906101000a900460ff169150610bbf565b8060050160009054906101000a900460ff1691505b50919050565b6000806000600260008581526020019081526020016000209050806001015481600201549250925050915091565b6000808314151515610c6d576040517f08c379a00000000000000000000000000000000000000000000000000000000081526004018080602001828103825260158152602001807f496e76616c69642066756e64696e6720676f616c2e000000000000000000000081525060200191505060405180910390fd5b4282111515610ce4576040517f08c379a00000000000000000000000000000000000000000000000000000000081526004018080602001828103825260128152602001807f496e76616c69642074696d6520676f616c2e000000000000000000000000000081525060200191505060405180910390fd5b60008081548092919060010191905055905060c0604051908101604052803373ffffffffffffffffffffffffffffffffffffffff168152602001848152602001838152602001600081526020016000815260200160006005811115610d4557fe5b8152506002600083815260200190815260200160002060008201518160000160006101000a81548173ffffffffffffffffffffffffffffffffffffffff021916908373ffffffffffffffffffffffffffffffffffffffff1602179055506020820151816001015560408201518160020155606082015181600301556080820151816004015560a08201518160050160006101000a81548160ff02191690836005811115610dee57fe5b02179055509050507f2e7f2217329a3e47a3677256eff38c93d7923be2208d4f25e2d1c6f9f828098981848460405180848152602001838152602001828152602001935050505060405180910390a192915050565b6000806002600084815260200190815260200160002090508060030154915050919050565b60015481565b600080600080600060026000878152602001908152602001600020935060036005811115610e9857fe5b8460050160009054906101000a900460ff166005811115610eb557fe5b1480610ee8575060046005811115610ec957fe5b8460050160009054906101000a900460ff166005811115610ee657fe5b145b1515610f82576040517f08c379a000000000000000000000000000000000000000000000000000000000815260040180806020018281038252603c8152602001807f596f752063616e6e6f742077697468647261772c20746869732063616d70616981526020017f676e206973206e6f742061206661696c65642063616d706169676e2e0000000081525060400191505060405180910390fd5b60008460040154111515611024576040517f08c379a00000000000000000000000000000000000000000000000000000000081526004018080602001828103825260388152602001807f596f752063616e6e6f742077697468647261772c207468652063616d7061696781526020017f6e20636f6e7461696e73206e6f20646f6e6174696f6e732e000000000000000081525060400191505060405180910390fd5b60009250600091505b83600401548210156110c95783600601600083815260200190815260200160002090503373ffffffffffffffffffffffffffffffffffffffff168160000160009054906101000a900473ffffffffffffffffffffffffffffffffffffffff1673ffffffffffffffffffffffffffffffffffffffff1614156110bc57806001015483019250600081600101819055505b818060010192505061102d565b6000831115611122573373ffffffffffffffffffffffffffffffffffffffff166108fc849081150290604051600060405180830381858888f19350505050158015611118573d6000803e3d6000fd5b5060019450611127565b600094505b50505050919050565b600080600260008481526020019081526020016000209050600081600101541115156111ea576040517f08c379a00000000000000000000000000000000000000000000000000000000081526004018080602001828103825260258152602001807f54686520646f6e6174696f6e2063616d706169676e20646f6573206e6f74206581526020017f786973747300000000000000000000000000000000000000000000000000000081525060400191505060405180910390fd5b600060058111156111f757fe5b8160050160009054906101000a900460ff16600581111561121457fe5b148061124757506001600581111561122857fe5b8160050160009054906101000a900460ff16600581111561124557fe5b145b15156112e1576040517f08c379a00000000000000000000000000000000000000000000000000000000081526004018080602001828103825260278152602001807f54686520646f6e6174696f6e2063616d706169676e20616c726561647920666981526020017f6e69736865642e0000000000000000000000000000000000000000000000000081525060400191505060405180910390fd5b8060000160009054906101000a900473ffffffffffffffffffffffffffffffffffffffff1673ffffffffffffffffffffffffffffffffffffffff163373ffffffffffffffffffffffffffffffffffffffff16141515156113cf576040517f08c379a00000000000000000000000000000000000000000000000000000000081526004018080602001828103825260288152602001807f546865206f776e6572206f66207468652063616d706169676e2063616e6e6f7481526020017f20646f6e6174652100000000000000000000000000000000000000000000000081525060400191505060405180910390fd5b806002015442111561153357600060058111156113e857fe5b8160050160009054906101000a900460ff16600581111561140557fe5b14156114795760038160050160006101000a81548160ff0219169083600581111561142c57fe5b02179055507f66b6993c4587bda52b7e91f5f309d1a4fbd3ca49ef6690977db3834b9bed2a02838260030154604051808381526020018281526020019250505060405180910390a16114e3565b60028160050160006101000a81548160ff0219169083600581111561149a57fe5b02179055507f6f8c4e1aca2800d73f6511dbf2792e880a7b8b266403cd1444be8ceb51b70a58838260030154604051808381526020018281526020019250505060405180910390a15b3373ffffffffffffffffffffffffffffffffffffffff166108fc349081150290604051600060405180830381858888f19350505050158015611529573d6000803e3d6000fd5b50600091506116de565b60408051908101604052803373ffffffffffffffffffffffffffffffffffffffff1681526020013481525081600601600083600401600081548092919060010191905055815260200190815260200160002060008201518160000160006101000a81548173ffffffffffffffffffffffffffffffffffffffff021916908373ffffffffffffffffffffffffffffffffffffffff160217905550602082015181600101559050503481600301600082825401925050819055507f0b5b4c52969ff7329ecf7ee536409fda87812b15a8622bc6e8cdeab3aee14a26833334604051808481526020018373ffffffffffffffffffffffffffffffffffffffff1673ffffffffffffffffffffffffffffffffffffffff168152602001828152602001935050505060405180910390a1806001015481600301541015156116d95760018160050160006101000a81548160ff0219169083600581111561169057fe5b02179055507fd46eb1e208283647b7d142330ccf2cfffa855d932233861c18cddb382a2c3fa3838260030154604051808381526020018281526020019250505060405180910390a15b600191505b509190505600a165627a7a72305820b918e77d5bc309c15edf818c5d5e5eb407e1b2cde7fea97b2b63f873c8d09fac0029",
  "source": "pragma solidity ^0.4.11;\n\ncontract DonationCampaignsTime {\n\n    struct Donation {\n        address from;\n        uint amount;\n    }\n\n    //\n\n    /* Donation campaign statuses\n        Active = Active\n        FundingGoalReachedNotExpired = Funding goal reached, time not expired yet.\n        FundingGoalReachedExpired = Funding goal reached, time has expired - owner can withdraw. (Finished)\n        FundingGoalNotReachedExpired = Funding goal not reached, time has expired - funds ready for refund. (Failed)\n        Stopped = Stopped - function call by owner, before the time has expired - funds ready for refund (Failed).\n        Succeeded = Finished - succeeded - owner withdrawn the funds\n    */\n\n    enum CampaignStatus {\n        Active,\n        FundingGoalReachedNotExpired,\n        FundingGoalReachedExpired,\n        FundingGoalNotReachedExpired,\n        Stopped,\n        Succeeded\n    }\n\n    struct DonationCampaign {\n        address owner;\n        uint fundingGoal;\n        uint timeGoal;\n        uint amount;\n        uint numDonations;\n        CampaignStatus status;\n        mapping (uint => Donation) donations;\n    }\n\n    uint public numCampaigns;\n    uint public numSucceededCampaigns;\n\n    mapping (uint => DonationCampaign) private donationCampaigns;\n\n    event DonationCampaignFundingGoalReached(uint donationCampaignId, uint amount);\n    event DonationCampaignGoalsReached(uint donationCampaignId, uint amount);\n    event DonationCampaignTimeExpiredNotFunded(uint donationCampaignId, uint amount);\n    event DonationCampaignSucceeded(uint donationCampaignId, uint amount);\n    event DonationCampaignStopped(uint donationCampaignId);\n    event DonationReceived(uint donationCampaignId, address from, uint amount);\n    event DonationCampaignCreated(uint donationCampaignId, uint fundingGoal, uint timeGoal);\n\n    function newCampaign(uint fundingGoal, uint timeGoal) public returns (uint donationCampaignId) {\n        require(fundingGoal != 0, \"Invalid funding goal.\");\n        require(timeGoal > now, \"Invalid time goal.\");\n\n        donationCampaignId = numCampaigns++;\n\n        donationCampaigns[donationCampaignId] = DonationCampaign({owner: msg.sender, fundingGoal: fundingGoal, timeGoal: timeGoal, amount: 0, numDonations: 0, status: CampaignStatus.Active});\n        emit DonationCampaignCreated(donationCampaignId, fundingGoal, timeGoal);\n    }\n\n    function donate(uint donationCampaignId) public payable returns (bool) {\n\n        DonationCampaign storage donationCampaign = donationCampaigns[donationCampaignId];\n\n        // Check if donation campaign exists\n        require(donationCampaign.fundingGoal > 0, 'The donation campaign does not exists');\n\n        // Check if donation campaign is not finished yet\n        require(donationCampaign.status == CampaignStatus.Active || donationCampaign.status == CampaignStatus.FundingGoalReachedNotExpired, 'The donation campaign already finished.');\n\n        // Check if the the donor is not the owner\n        require(msg.sender != donationCampaign.owner, 'The owner of the campaign cannot donate!');\n\n        // Check if donation campaign has expired\n        if(now > donationCampaign.timeGoal) {\n            // check if the campaign has failed in funding, if the funding is still not reached (use status to save on computation)\n            if(donationCampaign.status == CampaignStatus.Active) {\n                donationCampaign.status = CampaignStatus.FundingGoalNotReachedExpired;\n                emit DonationCampaignTimeExpiredNotFunded(donationCampaignId, donationCampaign.amount);\n            } else {\n                donationCampaign.status = CampaignStatus.FundingGoalReachedExpired;\n                emit DonationCampaignGoalsReached(donationCampaignId, donationCampaign.amount);\n            }\n            // return money to sender\n            msg.sender.transfer(msg.value);\n            return false;\n        }\n\n        donationCampaign.donations[donationCampaign.numDonations++] = Donation({from: msg.sender, amount: msg.value});\n        donationCampaign.amount += msg.value;\n\n        emit DonationReceived(donationCampaignId, msg.sender, msg.value);\n\n        if(donationCampaign.amount >= donationCampaign.fundingGoal) {\n            donationCampaign.status = CampaignStatus.FundingGoalReachedNotExpired;\n            emit DonationCampaignFundingGoalReached(donationCampaignId, donationCampaign.amount);\n        }\n\n        return true;\n    }\n\n    // Donor withdraw, if the campaign has failed.\n    // Check all donations, collect total amount, nullify donation amounts and transfer to donor,\n    // if the donor didn't withdraw already.\n    function withdrawFromFailedCampaign(uint donationCampaignId) public returns (bool) {\n\n        DonationCampaign storage donationCampaign = donationCampaigns[donationCampaignId];\n\n        require(donationCampaign.status == CampaignStatus.FundingGoalNotReachedExpired || donationCampaign.status == CampaignStatus.Stopped, \"You cannot withdraw, this campaign is not a failed campaign.\");\n\n        require(donationCampaign.numDonations > 0, \"You cannot withdraw, the campaign contains no donations.\");\n\n        uint withdrawAmount = 0;\n        for (uint i = 0; i < donationCampaign.numDonations; i++) {\n\n            Donation storage donation = donationCampaign.donations[i];\n            if(donation.from == msg.sender) {\n                withdrawAmount += donation.amount;\n                donation.amount = 0;\n            }\n        }\n\n        if(withdrawAmount > 0) {\n            msg.sender.transfer(withdrawAmount);\n            return true;\n        } else {\n            //            revert(\"You have nothing to withdraw\");\n            return false;\n        }\n\n    }\n\n    // Withdraw by campaign owner, if the campaign has finished successfully.\n    // The campaign has succeeded if the time has expired and the funding goal is reached.\n    function withdraw(uint donationCampaignId) public {\n\n        DonationCampaign storage donationCampaign = donationCampaigns[donationCampaignId];\n        // Check if the owner is the one who is going to withdraw.\n        require(donationCampaign.owner == msg.sender, 'The donation campaign owner can only withdraw the collected campaign funds.');\n\n        /*\n         Check if the donation campaign has finished (the funding goal is reached,\n         the time goal is reached (or about to be reached - time passed already but status not updated\n         - no donations or withdraw calls), and the owner hasn't withdrawn already).\n        */\n        require(donationCampaign.status == CampaignStatus.FundingGoalReachedNotExpired ||  donationCampaign.status == CampaignStatus.FundingGoalReachedExpired, 'Cannot withdraw, the goals not reached (conditions not met).');\n\n\n        if(donationCampaign.status == CampaignStatus.FundingGoalReachedNotExpired) {\n            if(now < donationCampaign.timeGoal) {\n                revert('Cannot withdraw, the campaign is still active - time not expired yet.');\n            }\n        }\n\n        // Update donation campaign state and transfer to owner.\n        donationCampaign.status = CampaignStatus.Succeeded;\n\n        uint amount = donationCampaign.amount;\n        // Nullify amount in case the owner tries to withdraw again.\n        donationCampaign.amount = 0;\n\n        numSucceededCampaigns++;\n        emit DonationCampaignSucceeded(donationCampaignId, amount);\n        msg.sender.transfer(amount);\n    }\n\n    function stopDonationCampaign(uint donationCampaignId) public returns (bool) {\n\n        DonationCampaign storage donationCampaign = donationCampaigns[donationCampaignId];\n\n        require(donationCampaign.status == CampaignStatus.Active || donationCampaign.status == CampaignStatus.FundingGoalReachedNotExpired || donationCampaign.status == CampaignStatus.FundingGoalReachedExpired, 'The campaign cannot be stopped at this stage, it has finished successfully, is already stopped or failed.');\n\n        require(donationCampaign.owner == msg.sender, 'The donation campaign owner can only stop the transaction.');\n\n        donationCampaign.status = CampaignStatus.Stopped;\n\n        emit DonationCampaignStopped(donationCampaignId);\n\n        return true;\n    }\n\n\n    function getCampaignCollectedAmount(uint donationCampaignId) view public returns (uint) {\n\n        DonationCampaign storage donationCampaign = donationCampaigns[donationCampaignId];\n\n        return donationCampaign.amount;\n    }\n\n    function getCampaignGoals(uint donationCampaignId) public view returns (uint, uint) {\n\n        DonationCampaign storage donationCampaign = donationCampaigns[donationCampaignId];\n\n        return (donationCampaign.fundingGoal, donationCampaign.timeGoal);\n    }\n\n    // revisit\n    function checkCampaignStatus(uint donationCampaignId) public returns (CampaignStatus) {\n\n        DonationCampaign storage donationCampaign = donationCampaigns[donationCampaignId];\n\n        require(donationCampaign.fundingGoal > 0, 'The donation campaign does not exists');\n\n        if(donationCampaign.status == CampaignStatus.Active) {\n            if(donationCampaign.timeGoal > now && donationCampaign.amount < donationCampaign.fundingGoal) {\n                donationCampaign.status = CampaignStatus.FundingGoalNotReachedExpired;\n            }\n            return donationCampaign.status;\n        } else if(donationCampaign.status == CampaignStatus.FundingGoalReachedNotExpired) {\n            if(donationCampaign.timeGoal > now) {\n                donationCampaign.status = CampaignStatus.FundingGoalReachedExpired;\n            }\n            return donationCampaign.status;\n        }\n\n        return donationCampaign.status;\n\n    }\n}\n",
  "sourcePath": "/home/blagoj/WebstormProjects/solidityPractice/contracts/DonationCampaignsTime.sol",
  "compiler": {
    "name": "solc",
    "version": "0.4.24+commit.e67f0147.Emscripten.clang"
  },
  "schemaVersion": "2.0.1",
  "updatedAt": "2018-08-23T08:50:42.531Z"
}