{
  "contractName": "DonationCampaigns",
  "abi": [
    {
      "constant": true,
      "inputs": [],
      "name": "numCampaigns",
      "outputs": [
        {
          "name": "",
          "type": "uint256"
        }
      ],
      "payable": false,
      "stateMutability": "view",
      "type": "function"
    },
    {
      "constant": true,
      "inputs": [],
      "name": "numSucceededCampaigns",
      "outputs": [
        {
          "name": "",
          "type": "uint256"
        }
      ],
      "payable": false,
      "stateMutability": "view",
      "type": "function"
    },
    {
      "anonymous": false,
      "inputs": [
        {
          "indexed": false,
          "name": "donationCampaignId",
          "type": "uint256"
        }
      ],
      "name": "DonationCampaignGoalReached",
      "type": "event"
    },
    {
      "anonymous": false,
      "inputs": [
        {
          "indexed": false,
          "name": "donationCampaignId",
          "type": "uint256"
        }
      ],
      "name": "DonationCampaignSucceeded",
      "type": "event"
    },
    {
      "anonymous": false,
      "inputs": [
        {
          "indexed": false,
          "name": "donationCampaignId",
          "type": "uint256"
        }
      ],
      "name": "DonationCampaignStopped",
      "type": "event"
    },
    {
      "anonymous": false,
      "inputs": [
        {
          "indexed": false,
          "name": "donationCampaignId",
          "type": "uint256"
        },
        {
          "indexed": false,
          "name": "from",
          "type": "address"
        },
        {
          "indexed": false,
          "name": "amount",
          "type": "uint256"
        }
      ],
      "name": "DonationReceived",
      "type": "event"
    },
    {
      "anonymous": false,
      "inputs": [
        {
          "indexed": false,
          "name": "donationCampaignId",
          "type": "uint256"
        },
        {
          "indexed": false,
          "name": "fundingGoal",
          "type": "uint256"
        }
      ],
      "name": "DonationCampaignCreated",
      "type": "event"
    },
    {
      "constant": false,
      "inputs": [
        {
          "name": "fundingGoal",
          "type": "uint256"
        }
      ],
      "name": "newCampaign",
      "outputs": [
        {
          "name": "donationCampaignId",
          "type": "uint256"
        }
      ],
      "payable": false,
      "stateMutability": "nonpayable",
      "type": "function"
    },
    {
      "constant": false,
      "inputs": [
        {
          "name": "donationCampaignId",
          "type": "uint256"
        }
      ],
      "name": "donate",
      "outputs": [
        {
          "name": "",
          "type": "bool"
        }
      ],
      "payable": true,
      "stateMutability": "payable",
      "type": "function"
    },
    {
      "constant": false,
      "inputs": [
        {
          "name": "donationCampaignId",
          "type": "uint256"
        }
      ],
      "name": "withdrawFromFailedCampaign",
      "outputs": [
        {
          "name": "",
          "type": "bool"
        }
      ],
      "payable": false,
      "stateMutability": "nonpayable",
      "type": "function"
    },
    {
      "constant": false,
      "inputs": [
        {
          "name": "donationCampaignId",
          "type": "uint256"
        }
      ],
      "name": "withdraw",
      "outputs": [],
      "payable": false,
      "stateMutability": "nonpayable",
      "type": "function"
    },
    {
      "constant": false,
      "inputs": [
        {
          "name": "donationCampaignId",
          "type": "uint256"
        }
      ],
      "name": "stopDonationCampaign",
      "outputs": [
        {
          "name": "",
          "type": "bool"
        }
      ],
      "payable": false,
      "stateMutability": "nonpayable",
      "type": "function"
    },
    {
      "constant": true,
      "inputs": [
        {
          "name": "donationCampaignId",
          "type": "uint256"
        }
      ],
      "name": "getCampaignCollectedAmount",
      "outputs": [
        {
          "name": "",
          "type": "uint256"
        }
      ],
      "payable": false,
      "stateMutability": "view",
      "type": "function"
    },
    {
      "constant": true,
      "inputs": [
        {
          "name": "donationCampaignId",
          "type": "uint256"
        }
      ],
      "name": "getCampaignFundingGoal",
      "outputs": [
        {
          "name": "",
          "type": "uint256"
        }
      ],
      "payable": false,
      "stateMutability": "view",
      "type": "function"
    }
  ],
  "bytecode": "0x608060405234801561001057600080fd5b5061112c806100206000396000f300608060405260043610610099576000357c0100000000000000000000000000000000000000000000000000000000900463ffffffff1680632c0f7b6f1461009e5780632e1a7d4d146100c95780633bf395a7146100f6578063a9ba4a8d1461013b578063bcddb6881461017c578063c2fed823146101a7578063c34b34df146101e8578063c80c854c14610229578063f14faf6f1461026e575b600080fd5b3480156100aa57600080fd5b506100b36102a6565b6040518082815260200191505060405180910390f35b3480156100d557600080fd5b506100f4600480360381019080803590602001909291905050506102ac565b005b34801561010257600080fd5b50610121600480360381019080803590602001909291905050506105a0565b604051808215151515815260200191505060405180910390f35b34801561014757600080fd5b506101666004803603810190808035906020019092919050505061084f565b6040518082815260200191505060405180910390f35b34801561018857600080fd5b50610191610874565b6040518082815260200191505060405180910390f35b3480156101b357600080fd5b506101d26004803603810190808035906020019092919050505061087a565b6040518082815260200191505060405180910390f35b3480156101f457600080fd5b506102136004803603810190808035906020019092919050505061089f565b6040518082815260200191505060405180910390f35b34801561023557600080fd5b5061025460048036038101908080359060200190929190505050610a5f565b604051808215151515815260200191505060405180910390f35b61028c60048036038101908080359060200190929190505050610cef565b604051808215151515815260200191505060405180910390f35b60005481565b600080600260008481526020019081526020016000209150600160038111156102d157fe5b6002600085815260200190815260200160002060040160009054906101000a900460ff16600381111561030057fe5b1415156103c1576040517f08c379a00000000000000000000000000000000000000000000000000000000081526004018080602001828103825260438152602001807f43616e6e6f742077697468647261772c207468652066756e64696e6720676f6181526020017f6c206e6f7420726561636865642028636f6e646974696f6e73206e6f74206d6581526020017f74292e000000000000000000000000000000000000000000000000000000000081525060600191505060405180910390fd5b3373ffffffffffffffffffffffffffffffffffffffff168260000160009054906101000a900473ffffffffffffffffffffffffffffffffffffffff1673ffffffffffffffffffffffffffffffffffffffff161415156104d4576040517f08c379a000000000000000000000000000000000000000000000000000000000815260040180806020018281038252604b8152602001807f54686520646f6e6174696f6e2063616d706169676e206f776e65722063616e2081526020017f6f6e6c792077697468647261772074686520636f6c6c65637465642063616d7081526020017f6169676e2066756e64732e00000000000000000000000000000000000000000081525060600191505060405180910390fd5b60038260040160006101000a81548160ff021916908360038111156104f557fe5b021790555081600201549050600082600201819055506001600081548092919060010191905055507f4f455b02ce41d97797e9e556cc09053d620e1bce1e0cde893d597430ea5fc9ce836040518082815260200191505060405180910390a13373ffffffffffffffffffffffffffffffffffffffff166108fc829081150290604051600060405180830381858888f1935050505015801561059a573d6000803e3d6000fd5b50505050565b600080600260008481526020019081526020016000209050600060038111156105c557fe5b8160040160009054906101000a900460ff1660038111156105e257fe5b14806106155750600160038111156105f657fe5b8160040160009054906101000a900460ff16600381111561061357fe5b145b15156106fb576040517f08c379a00000000000000000000000000000000000000000000000000000000081526004018080602001828103825260698152602001807f5468652063616d706169676e2063616e6e6f742062652073746f70706564206181526020017f7420746869732073746167652c206974206861732066696e697368656420737581526020017f636365737366756c6c792c20697320616c72656164792073746f70706564206f81526020017f72206661696c65642e000000000000000000000000000000000000000000000081525060800191505060405180910390fd5b3373ffffffffffffffffffffffffffffffffffffffff168160000160009054906101000a900473ffffffffffffffffffffffffffffffffffffffff1673ffffffffffffffffffffffffffffffffffffffff161415156107e8576040517f08c379a000000000000000000000000000000000000000000000000000000000815260040180806020018281038252603a8152602001807f54686520646f6e6174696f6e2063616d706169676e206f776e65722063616e2081526020017f6f6e6c792073746f7020746865207472616e73616374696f6e2e00000000000081525060400191505060405180910390fd5b60028160040160006101000a81548160ff0219169083600381111561080957fe5b02179055507f77d4718e51758fb83bb17a3e3355d0374bf766d669f752389895a1980b58013c836040518082815260200191505060405180910390a16001915050919050565b6000806002600084815260200190815260200160002090508060020154915050919050565b60015481565b6000806002600084815260200190815260200160002090508060010154915050919050565b6000808214151515610919576040517f08c379a00000000000000000000000000000000000000000000000000000000081526004018080602001828103825260158152602001807f496e76616c69642066756e64696e6720676f616c2e000000000000000000000081525060200191505060405180910390fd5b60008081548092919060010191905055905060a0604051908101604052803373ffffffffffffffffffffffffffffffffffffffff16815260200183815260200160008152602001600081526020016000600381111561097457fe5b8152506002600083815260200190815260200160002060008201518160000160006101000a81548173ffffffffffffffffffffffffffffffffffffffff021916908373ffffffffffffffffffffffffffffffffffffffff16021790555060208201518160010155604082015181600201556060820151816003015560808201518160040160006101000a81548160ff02191690836003811115610a1357fe5b02179055509050507f7544d4f4297b93fbfdb886a7817acc11210b4cc5ecf6400bd6118e05e210297b8183604051808381526020018281526020019250505060405180910390a1919050565b600080600080600060026000878152602001908152602001600020935060026003811115610a8957fe5b8460040160009054906101000a900460ff166003811115610aa657fe5b141515610b41576040517f08c379a000000000000000000000000000000000000000000000000000000000815260040180806020018281038252603d8152602001807f596f752063616e6e6f742077697468647261772c20746869732063616d70616981526020017f676e206973206e6f7420612073746f707065642063616d706169676e2e00000081525060400191505060405180910390fd5b60008460030154111515610be3576040517f08c379a00000000000000000000000000000000000000000000000000000000081526004018080602001828103825260388152602001807f596f752063616e6e6f742077697468647261772c207468652063616d7061696781526020017f6e20636f6e7461696e73206e6f20646f6e6174696f6e732e000000000000000081525060400191505060405180910390fd5b60009250600091505b8360030154821015610c885783600501600083815260200190815260200160002090503373ffffffffffffffffffffffffffffffffffffffff168160000160009054906101000a900473ffffffffffffffffffffffffffffffffffffffff1673ffffffffffffffffffffffffffffffffffffffff161415610c7b57806001015483019250600081600101819055505b8180600101925050610bec565b6000831115610ce1573373ffffffffffffffffffffffffffffffffffffffff166108fc849081150290604051600060405180830381858888f19350505050158015610cd7573d6000803e3d6000fd5b5060019450610ce6565b600094505b50505050919050565b60008060026000848152602001908152602001600020905060008160010154111515610da9576040517f08c379a00000000000000000000000000000000000000000000000000000000081526004018080602001828103825260268152602001807f54686520646f6e6174696f6e2063616d706169676e20646f6573206e6f74206581526020017f78697374732e000000000000000000000000000000000000000000000000000081525060400191505060405180910390fd5b60006003811115610db657fe5b8160040160009054906101000a900460ff166003811115610dd357fe5b141515610e6e576040517f08c379a00000000000000000000000000000000000000000000000000000000081526004018080602001828103825260278152602001807f54686520646f6e6174696f6e2063616d706169676e20616c726561647920666981526020017f6e69736865642e0000000000000000000000000000000000000000000000000081525060400191505060405180910390fd5b8060000160009054906101000a900473ffffffffffffffffffffffffffffffffffffffff1673ffffffffffffffffffffffffffffffffffffffff163373ffffffffffffffffffffffffffffffffffffffff1614151515610f5c576040517f08c379a00000000000000000000000000000000000000000000000000000000081526004018080602001828103825260288152602001807f546865206f776e6572206f66207468652063616d706169676e2063616e6e6f7481526020017f20646f6e6174652100000000000000000000000000000000000000000000000081525060400191505060405180910390fd5b60408051908101604052803373ffffffffffffffffffffffffffffffffffffffff1681526020013481525081600501600083600301600081548092919060010191905055815260200190815260200160002060008201518160000160006101000a81548173ffffffffffffffffffffffffffffffffffffffff021916908373ffffffffffffffffffffffffffffffffffffffff160217905550602082015181600101559050503481600201600082825401925050819055507f0b5b4c52969ff7329ecf7ee536409fda87812b15a8622bc6e8cdeab3aee14a26833334604051808481526020018373ffffffffffffffffffffffffffffffffffffffff1673ffffffffffffffffffffffffffffffffffffffff168152602001828152602001935050505060405180910390a1806001015481600201541015156110f65760018160040160006101000a81548160ff021916908360038111156110b957fe5b02179055507f0924b9bae231638e186630c3f42c596d3fa0dd78965292640865ca534415a9ff836040518082815260200191505060405180910390a15b60019150509190505600a165627a7a72305820ff1387727711d86766fc3e45f39b697d54ff130dffbe438f3ff39a81a1fa26990029",
  "source": "pragma solidity ^0.4.11;\n\ncontract DonationCampaigns {\n\n    struct Donation {\n        address from;\n        uint amount;\n    }\n\n    /* Donation campaign status\n        Active = Active\n        FundingGoalReached = Finished (goal reached) - not withdrawn yet, donations stopped, owner can withdraw.\n        Stopped = Finished - failed - function call by owner (funds ready for refund, donations stopped)\n        Succeeded = Finished - succeeded - owner withdrawn the funds\n    */\n\n    enum CampaignStatus {\n        Active,\n        FundingGoalReached,\n        Stopped,\n        Succeeded\n    }\n\n    struct DonationCampaign {\n        address owner;\n        uint fundingGoal; // wei\n        uint amount; // wei\n        uint numDonations;\n        CampaignStatus status;\n        mapping (uint => Donation) donations;\n    }\n\n    uint public numCampaigns;\n    uint public numSucceededCampaigns;\n\n    mapping (uint => DonationCampaign) private donationCampaigns;\n\n    event DonationCampaignGoalReached(uint donationCampaignId);\n    event DonationCampaignSucceeded(uint donationCampaignId);\n    event DonationCampaignStopped(uint donationCampaignId);\n    event DonationReceived(uint donationCampaignId, address from, uint amount);\n    event DonationCampaignCreated(uint donationCampaignId, uint fundingGoal);\n\n    function newCampaign(uint fundingGoal) public returns (uint donationCampaignId) {\n        require(fundingGoal != 0, \"Invalid funding goal.\");\n        donationCampaignId = numCampaigns++;\n\n        donationCampaigns[donationCampaignId] = DonationCampaign({owner: msg.sender, fundingGoal: fundingGoal, amount: 0, numDonations: 0, status: CampaignStatus.Active});\n        emit DonationCampaignCreated(donationCampaignId, fundingGoal);\n    }\n\n    function donate(uint donationCampaignId) public payable returns (bool) {\n\n        DonationCampaign storage donationCampaign = donationCampaigns[donationCampaignId];\n\n        // Check if donation campaign exists\n        require(donationCampaign.fundingGoal > 0, 'The donation campaign does not exists.');\n\n        // Check if donation campaign is not finished yet\n        require(donationCampaign.status == CampaignStatus.Active, 'The donation campaign already finished.');\n\n        // Check if the the donor is not the owner\n        require(msg.sender != donationCampaign.owner, 'The owner of the campaign cannot donate!');\n\n        donationCampaign.donations[donationCampaign.numDonations++] = Donation({from: msg.sender, amount: msg.value});\n        donationCampaign.amount += msg.value;\n\n        emit DonationReceived(donationCampaignId, msg.sender, msg.value);\n\n        if(donationCampaign.amount >= donationCampaign.fundingGoal) {\n            donationCampaign.status = CampaignStatus.FundingGoalReached;\n            emit DonationCampaignGoalReached(donationCampaignId);\n        }\n\n        return true;\n    }\n\n    // Donor withdraw, if the campaign has failed.\n    // Check all donations, collect total amount, nullify donation amounts and transfer to donor,\n    // if the donor didn't withdraw already.\n    function withdrawFromFailedCampaign(uint donationCampaignId) public returns (bool) {\n\n        DonationCampaign storage donationCampaign = donationCampaigns[donationCampaignId];\n\n        require(donationCampaign.status == CampaignStatus.Stopped, \"You cannot withdraw, this campaign is not a stopped campaign.\");\n\n        require(donationCampaign.numDonations > 0, \"You cannot withdraw, the campaign contains no donations.\");\n\n        uint withdrawAmount = 0;\n        for (uint i = 0; i < donationCampaign.numDonations; i++) {\n\n            Donation storage donation = donationCampaign.donations[i];\n            if(donation.from == msg.sender) {\n                withdrawAmount += donation.amount;\n                donation.amount = 0;\n            }\n        }\n\n        if(withdrawAmount > 0) {\n            msg.sender.transfer(withdrawAmount);\n            return true;\n        } else {\n//            revert(\"You have nothing to withdraw\");\n            return false;\n        }\n\n\n    }\n\n    // Withdraw by campaign owner, if the campaign has finished successfully.\n    // The campaign has succeeded if the funding goal is reached.\n    function withdraw(uint donationCampaignId) public {\n\n        DonationCampaign storage donationCampaign = donationCampaigns[donationCampaignId];\n\n        // Check if donation campaign exists and is finished (the owner did not withdraw yet).\n        require(donationCampaigns[donationCampaignId].status == CampaignStatus.FundingGoalReached, 'Cannot withdraw, the funding goal not reached (conditions not met).');\n\n        // Check if the owner is the one who is going to withdraw.\n        require(donationCampaign.owner == msg.sender, 'The donation campaign owner can only withdraw the collected campaign funds.');\n\n        // Update donation campaign state and transfer to owner.\n        donationCampaign.status = CampaignStatus.Succeeded;\n\n        uint amount = donationCampaign.amount;\n        // Nullify amount in case the owner tries to withdraw again.\n        donationCampaign.amount = 0;\n\n        numSucceededCampaigns++;\n        emit DonationCampaignSucceeded(donationCampaignId);\n        msg.sender.transfer(amount);\n    }\n\n    function stopDonationCampaign(uint donationCampaignId) public returns (bool) {\n\n        DonationCampaign storage donationCampaign = donationCampaigns[donationCampaignId];\n\n        require(donationCampaign.status == CampaignStatus.Active || donationCampaign.status == CampaignStatus.FundingGoalReached, 'The campaign cannot be stopped at this stage, it has finished successfully, is already stopped or failed.');\n\n        require(donationCampaign.owner == msg.sender, 'The donation campaign owner can only stop the transaction.');\n\n        donationCampaign.status = CampaignStatus.Stopped;\n\n        emit DonationCampaignStopped(donationCampaignId);\n\n        return true;\n    }\n\n    function getCampaignCollectedAmount(uint donationCampaignId) public view returns (uint) {\n\n        DonationCampaign storage donationCampaign = donationCampaigns[donationCampaignId];\n\n        return donationCampaign.amount;\n    }\n\n    function getCampaignFundingGoal(uint donationCampaignId) public view returns (uint) {\n\n        DonationCampaign storage donationCampaign = donationCampaigns[donationCampaignId];\n\n        return donationCampaign.fundingGoal;\n    }\n\n}\n",
  "sourcePath": "/home/blagoj/WebstormProjects/solidityPractice/contracts/DonationCampaigns.sol",
  "compiler": {
    "name": "solc",
    "version": "0.4.24+commit.e67f0147.Emscripten.clang"
  },
  "schemaVersion": "2.0.1",
  "updatedAt": "2018-08-23T08:50:42.517Z"
}